:020000040800F2
:10000000E84E002081020008971F00088B140008AA
:10001000951F0008BD090008E72300080000000044
:10002000000000000000000000000000C101000806
:10003000210A0008000000001D020008B921000884
:100040009B0200089B0200089B0200089B0200081C
:100050009B0200089B0200089B0200089B0200080C
:100060009B0200089B0200089B0200089B020008FC
:100070009B0200089B0200089B0200089B020008EC
:100080009B0200089B0200089B0200089B020008DC
:10009000C10900089B0200089B0200089B0200089F
:1000A0009B0200089B0200089B0200089B020008BC
:1000B0009B0200089B0200089B0200089B020008AC
:1000C0009B0200089B0200089B0200089B0200089C
:1000D0009B0200089B0200089B020008E523000821
:1000E0009B0200089B0200089B0200089B0200087C
:1000F0009B0200089B0200089B0200089B0200086C
:100100009B0200089B0200089B0200089B0200085B
:100110009B0200089B020008C1220008CD220008B3
:100120009B0200089B0200089B0200089B0200083B
:100130001D0A00089B0200089B0200089B020008A1
:100140009B0200089B0200089B0200089B0200081B
:100150001F0A00089B0200089B0200089B0200087F
:100160009B0200089B0200089B0200089B020008FB
:100170009B0200089B0200089B0200080000000090
:100180009B0200089B0200089B0200089B020008DB
:100190009B020008712100089B0200089B020008D6
:1001A00000000000000000009B020008DFF80CD0F7
:1001B00000F0F2FB0048004799410008E84E00209B
:1001C0002C4B19680868B0E8F04F80F30988BFF33A
:1001D0006F8F4FF0000080F311887047000000001F
:1001E00008480068006880F308884FF0000080F33A
:1001F000148862B661B6BFF34F8FBFF36F8F00DF15
:1002000000BF00BF08ED00E0DFF80C00016841F41A
:1002100070010160704700BF88ED00E0EFF30980D6
:10022000BFF36F8F134B1A681EF0100F08BF20ED3D
:10023000108A20E9F04F106009B44FF0500080F3AD
:100240001188BFF34F8FBFF36F8F05F03DF94FF06B
:10025000000080F3118809BC19680868B0E8F04F05
:100260001EF0100F08BFB0EC108A80F30988BFF3AE
:100270006F8F704720000020EFF30580704700006B
:100280000648804706480047FEE7FEE7FEE7FEE730
:10029000FEE7FEE7FEE7FEE7FEE7FEE7B122000825
:1002A000AD0100082DE9F05F0546002092469B460F
:1002B00088460646814640241BE02846414647467C
:1002C000224600F04AFA53465A46C01A914110D3CA
:1002D00011461846224600F031FA2D1A67EB010844
:1002E0004F4622460120002100F028FA17EB0009B2
:1002F0004E41201EA4F10104DFDC484631462A4667
:100300004346BDE8F09F40EA01039B0703D009E0A4
:1003100008C9121F08C0042AFAD203E011F8013BF1
:1003200000F8013B521EF9D27047D2B201E000F84A
:10033000012B491EFBD270470022F6E710B5134689
:100340000A4604461946FFF7F0FF204610BD2DE986
:10035000FE4F804681EA0300C00F0C46009021F05A
:10036000004123F00045B8EB0200A94105D2404608
:10037000214690461C460B46024623F0004010439F
:1003800047D0270DC7F30A00C3F30A510290401A61
:10039000019040286BDAC3F3130040F4801B0098EF
:1003A000924620B10023D2EB030A63EB0B0B0198BA
:1003B0005946C0F14002504600F0C0F906460D46CD
:1003C00050465946019A00F0D8F910EB08006141F7
:1003D000002487EA115284EAE7731A4340D0009A56
:1003E00062B3019A012A4FEA075215DC001B61EB48
:1003F00002014FF0004202EA0752CDE90042001C20
:1004000041F5801132462B4600F00FFA03B0BDE8EB
:10041000F08F40462146F9E7001B61EB0201001C0A
:1004200041F5801300185B412018A2F5001747EB37
:10043000030140EAD570B6196D4111E06D084FEA2D
:10044000360645EAC0754FEA0752001B61EB020110
:10045000001C41F5801149084FEA30000019514154
:1004600032462B4603B0BDE8F04F00F0CFB90098FC
:10047000012240000023D0EB020263EBE0730098FE
:1004800021464FEAE074B8EB000061EB0401E9E7B4
:1004900083F000435BE781F0004158E72DE9FE4F10
:1004A00081EA030404F0004421F0004100944FF07D
:1004B000000B23F0004350EA01045ED052EA03042B
:1004C0005BD0C3F30A54C1F30A552C44A4F2F334AD
:1004D0000194A0FB0254C1F3130141F48011C3F352
:1004E000130343F4801301FB024400FB034E840A10
:1004F000970A44EA815447EA8357A4FB07680295A8
:100500008D0A05FB07854FEA932C04FB0C54270545
:10051000029D4FEA065847EA1637B5EB08056EEB21
:10052000070C870E920E47EA811742EA8312A7FB57
:100530000201B6EB0B0164EB00042B0D43EA0C3314
:100540005E1844EB1C50DA465146E7FB0201C5F346
:1005500013044FEA0B3343EA14534FEA0432019C6D
:1005600043EA0603A4F10C040294009CCDE900B414
:1005700000F05BF903B0BDE8F08F00200146F9E719
:100580002DE9F04D81EA030404F0004B21F0004511
:1005900014464FF0000A23F0004150EA050220D033
:1005A00054EA01021DD0C5F30A570246C5F31303EE
:1005B000C1F31300C1F30A5640F4801543F48013CD
:1005C000A7EB0608101BD64608F2FD3873EB0500B2
:1005D00002D308F1010801E092185B41B8F1000F65
:1005E00003DA00200146BDE8F08D00204FF48011B1
:1005F000064684460EE0171B73EB050705D3121B56
:1006000063EB050306434CEA010C49084FEA30004E
:1006100092185B4150EA0107EDD152EA030012D073
:1006200082EA040083EA0501084305D0101BAB41B0
:1006300006D20122002306E000224FF0004302E030
:100640006FF0010253101AEB06004CEB085110EB4F
:100650000A0041EB0B01BDE8F04D00F0D7B80EB534
:10066000C10F80EAE0700844CA07002140F233431A
:100670008DE80E000A460B4600F0D7F803B000BD27
:1006800000F0004230F000400AD0C10D01F5607169
:10069000C0F3160042EA0151C208400711437047F7
:1006A000002001467047000030B5041E71F10004BF
:1006B00004DB4FF00044404264EB0101141E73F16F
:1006C000000405DB1C464FF00043524263EB040379
:1006D000994208BF904230BD01F0004330B421F090
:1006E000004150EA010206D00A0DA2F56072C1F382
:1006F0001301002A02DC30BC00207047440F44EA9A
:10070000C104C100E01830BC00EBC25000F047B893
:1007100030B50B46014600202022012409E021FAD1
:1007200002F59D4205D303FA02F5491B04FA02F5CE
:100730002844151EA2F10102F1DC30BD202A04DBA1
:10074000203A00FA02F1002070479140C2F12003E4
:1007500020FA03F3194390407047202A04DB203A23
:1007600021FA02F00021704721FA02F3D040C2F1D1
:1007700020029140084319467047202A06DBCB1718
:10078000203A41FA02F043EAE07306E041FA02F34C
:10079000D040C2F120029140084319467047002919
:1007A000A8BF7047401C490008BF20F001007047F7
:1007B00010B4B0FA80FC00FA0CF050EA010404BF57
:1007C00010BC704749B1CCF1200421FA04F411FAAD
:1007D0000CF118BF012121430843A3EB0C01CB1DF1
:1007E0004FEA00614FEA102042BF002010BC704762
:1007F00000EBC35010440029A4BF10BC7047401C3C
:10080000490008BF20F0010010BC704710B5141E4D
:1008100073F1000408DA401C41F1000192185B41B9
:100820001A4301D120F0010010BD2DE9F04D924690
:100830009B4611B1B1FA81F202E0B0FA80F22032A7
:100840009046FFF77BFF04460F4640EA0A0041EA64
:100850000B0153465A46084313D0114653EA010090
:1008600019D0C8F140025046FFF777FF05460E4603
:10087000504659464246FFF761FF084305D0012024
:1008800004E020463946BDE8F08D0020054346EAE5
:10089000E0762C4337430A986305E40AA0EB08008E
:1008A0000022FD0A44EA47540A3002D500200146DE
:1008B000E9E7010510196941DDE9084500196941B9
:1008C000BDE8F04DA2E72DE9F04D00231A461B1AB2
:1008D0008A4103DB00200146BDE8F08DC1F30A52D6
:1008E000C1F3130141F480154FF0000BD10702D181
:1008F00000186D41521E0027044640F2FF11384691
:1009000001EB620A3E468046024600204FF4801109
:10091000FFF723FFC2197141BB1846EB0100B4EB8E
:10092000030C75EB000C04D3E41A65EB00051746C5
:100930000E46241908F101006D4180463428E3DD9C
:10094000F91946EB0600091BA84103D24FF0FF320C
:10095000134601E0002213461BEB070046EB0A5149
:10096000BDE8F04DFFF752BFC1F30A52C1F31301C6
:1009700040F2FF3341F480119A4202DA002001462E
:10098000704740F233439A42A2F2334202DC5242B1
:10099000FFF7E3BEFFF7D2BE064C074D06E0E06866
:1009A00040F0010394E8070098471034AC42F6D3B6
:1009B000FFF700FCA0650008C0650008FEE7000026
:1009C000014800F031B800000801002008B54FF4DC
:1009D0008046104FDFF840804FF0FF35B4112946B4
:1009E0002B466A46002005F037FB01280DD17869B7
:1009F00026EA000100F4804041EA0040B861009915
:100A000024FA01F00104C8F81810012003F094FD45
:100A1000E5E70000001402400018024070477047EC
:100A2000704772B6FEE770472DE9F05F0546006833
:100A300000244669D0F804908768D0F80CB0D0F84C
:100A400010A0D0F81880F10748D0F90714D0012180
:100A50008160B80703D5284600F0B4F90CE07807A8
:100A600002D54FF4006407E0380702D54FF48054F4
:100A700002E0284600F0A5F9F80516D529684FF4DC
:100A800080708860B80503D5284600F09DF90CE019
:100A9000780502D544F4005407E0380502D544F443
:100AA000804402E0284600F08EF9F80316D5296844
:100AB0004FF480308860B80303D5284600F086F9EB
:100AC0000CE0780302D544F4004407E0380302D573
:100AD00044F4803402E0284600F077F9300707D567
:100AE0005FEACB6004D52968102044F40074C86024
:100AF00070074FF0080707D55FEA0B7004D5286828
:100B0000C760284600F058F9B00706D52868C068C5
:100B1000800702D0284600F050F9700607D55FEA3A
:100B2000CA6004D52968102044F480640861B006C6
:100B300007D55FEA0A7004D528680761284600F0E7
:100B40003DF9F00606D528680069800702D02846DE
:100B500000F035F9B00308D55FEAC96005D529680A
:100B600010204860284600F02BF9F00307D55FEA13
:100B7000097004D528684760284600F028F9300439
:100B800046D55FEA497040D5F00504D55FEAC870E4
:100B900001D044F00104B00504D55FEA887001D5A6
:100BA00044F00204700504D55FEA487001D544F0B2
:100BB0000404300529D518F0700F26D008F0700015
:100BC000402815D006DC102809D020280AD030286B
:100BD00016D10AE050280ED0602811D10EE044F062
:100BE00008040DE044F010040AE044F0200407E09B
:100BF00044F0400404E044F0800401E044F48074D4
:100C00002868816921F070018161296804204860A9
:100C1000002C05D0686A204368622846FFF703FF6E
:100C2000BDE8F09F70B5040003D094F8200010B127
:100C300004E0012070BD204600F082F820680168C1
:100C400041F00101016000F0EFF90546052604E0DE
:100C500000F0EAF9401B0A2811D820684068C00754
:100C6000F6D02068016821F00201016000F0DCF993
:100C700005460BE000F0D8F9401B0A2806D9606A47
:100C800040F40030606284F82060D2E72068406859
:100C90008007EFD4207E0128206801683DD021F034
:100CA00080010160607E01282068016838D021F051
:100CB00040010160A07E01282068016833D021F046
:100CC00020010160E07E0128206801682ED041F0FB
:100CD00010010160207F01282068016829D021F0DF
:100CE00008010160607F01282068016824D021F09C
:100CF00004010160D4E902010843D4E9041211435C
:100D000008436168491E08432168C8610020606289
:100D1000012084F82000002070BD41F08001C0E770
:100D200041F04001C5E741F02001CAE721F0100180
:100D3000CFE741F00801D4E741F00401D9E7000012
:100D400010B586B0044614216846FFF7F5FA174936
:100D50002068884227D116480021026842F00072BC
:100D60000260006800F000700590114810380268B9
:100D700042F0080202600068022200F008000590BC
:100D80000320CDE90210CDE9000209200490694654
:100D9000084800F02FF800220521142000F0E2F9A5
:100DA000142000F0D1F906B010BD0000006400402E
:100DB00040380240000C024070477047704770474F
:100DC000704770477047704770477047704770476B
:100DD00070B5044600F028F90546601C02D00448AE
:100DE0000078044400F020F9401BA042FAD370BD03
:100DF000100000202DE9F84FDFF8F8A100220124AF
:100E000003254FF00F090AF1040BAAF1040E00BFED
:100E10000B6804FA02F63340B34270D10F7907F041
:100E20000307012F01D0022F16D187684FEA42082D
:100E300005FA08FC27EA0C07D1F80CC00CFA08FCEC
:100E40004CEA070CC0F808C04768B7430E79C6F3F0
:100E5000001696403E4346600E79F643B6070AD028
:100E6000C7684FEA420C05FA0CF6B7438E6806FADB
:100E70000CF63E43C6600E7906F00306022E10D132
:100E8000D60800EB8608D8F8206057074FEAD76CE1
:100E900009FA0CF7BE430F6907FA0CF73743C8F895
:100EA000207006684FEA420C05FA0CF7BE430F7932
:100EB00007F0030707FA0CF7374307604E6816F48C
:100EC000403F1CD04C4E376847F480473760366847
:100ED00022F0030706F480460096484E07EB060C06
:100EE000DCF8086897073F0F09FA07F826EA0806B2
:100EF000DFF80C81404503D14FF0000841E072E07B
:100F0000DFF80081404502D14FF0010839E0DFF8F9
:100F1000F880404502D14FF0020832E0DFF8EC8063
:100F2000404502D14FF003082BE0DFF8E480404554
:100F300002D14FF0040824E0DFF8D880404502D108
:100F40004FF005081DE0DFF8D080404502D14FF09A
:100F5000060816E0DFF8C480404502D14FF00708CC
:100F60000FE0DFF8BC80404502D14FF0080808E0F0
:100F7000DFF8B080404502D14FF0090801E04FF0A2
:100F80000A0808FA07F848EA0608CCF80888DAF8E8
:100F900000605746D1F804C09E435FEACC2C00D5D0
:100FA0001E433E60DBF800605F46D1F804C09E43FC
:100FB0005FEA8C2C00D51E433E60DEF80060774669
:100FC000D1F804C09E435FEA8C3C00D51E433E60CE
:100FD000084F083F3E68D1F804C09E435FEACC3C0E
:100FE00000D51E433E60521C102AFFF411AFBDE82D
:100FF000F88F0000083C01404438024000300140B6
:10100000000002400004024000080240000C0240C0
:10101000001002400014024000180240001C024070
:101020000020024000240240014880687047000010
:1010300010000020024881680278114481607047E6
:10104000100000200B4810B5016841F400710160E8
:10105000016841F480610160016841F480710160C0
:10106000032000F09FF80F2000F006F800F050F881
:10107000002010BD003C024030B505461F4887B037
:101080000024016841F010010160006806A900F029
:101090001000009001A800F097F80498A8B100F0A3
:1010A000B3F840001649174AB0FBF1F11648491E43
:1010B000026040F2E732C0E90324C0E90114846110
:1010C00000F0B4F8040003D015E000F09DF8E9E763
:1010D0000D4800F0D9F804000DD1362000F034F8A6
:1010E000102D07D200222946362000F03BF8074891
:1010F000056000E0012407B0204630BD40380240C2
:1011000040420F0000100040300100201400002079
:101110000C4882B0016841F480410160006800F42D
:10112000804000900748001F016841F08051016035
:101130000068002200F0805000900F21901E02B045
:1011400000F010B844380240002809DB00F01F020C
:10115000012191404009800000F1E020C0F8001119
:1011600070470000F0B40E4B1B680C46C3F302231B
:10117000C3F10705042D00D90425191D072901D243
:10118000002300E0DB1E012606FA05F1491E21407E
:1011900099409E40761E16403143F0BC01F069B97B
:1011A0000CED00E0064900F0070208684FF6FF0367
:1011B000184040EA0220034A1043086070470000CC
:1011C0000CED00E00000FA050F2202600C4A1368E3
:1011D00003F003034360136803F0F00383601368B4
:1011E00003F4E053C36012684FF4E05303EAD20201
:1011F00002610448006800F00F00086070470000BA
:1012000008380240003C024004480549006809686B
:10121000044AC1F38221515CC84070471C00002081
:10122000083802406C6400087047704710B504002D
:1012300003D094F83D0010B107E0012010BD00205C
:1012400084F83C00204600F01EF8022084F83D009F
:10125000211D206801F062F8012084F8460084F81E
:101260003E0084F83F0084F8400084F8410084F890
:10127000420084F8430084F8440084F8450084F870
:101280003D00002010BD704790F83D10012901D0AD
:1012900001207047022180F83D100168CA6842F0C1
:1012A0000102CA6000681149884214D0B0F1804F31
:1012B00011D00F4988420ED00E4988420BD00E49FA
:1012C000884208D00D49884205D00D49884202D095
:1012D0000C49884204D1816801F00701062903D036
:1012E000016841F0010101600020704700000140E9
:1012F0000004004000080040000C004000040140D1
:101300000040014000180040704770B50446006876
:1013100001694FF00005C943890715D4C168C94365
:10132000890711D4E91E01610120207720688069B6
:101330008007204602D0FFF7E7FF04E000F098F8AE
:10134000204600F096F8257720680169C9434907CF
:1013500017D4C168C943490713D46FF00401016170
:10136000022020772068806910F4407F204602D058
:10137000FFF7CAFF04E000F07BF8204600F079F8A0
:10138000257720680169C943090716D4C168C94394
:10139000090712D46FF0080101610420207720684A
:1013A000C0698007204602D0FFF7AEFF04E000F0DE
:1013B0005FF8204600F05DF8257720680169C94391
:1013C000C90617D4C168C943C90613D46FF0100108
:1013D0000161082020772068C06910F4407F204612
:1013E00002D0FFF791FF04E000F042F8204600F041
:1013F00040F8257720680169C943C90708D1C16849
:10140000C943C90704D1891E0161204600F032F8A2
:1014100020680169C943090609D4C168C94309069E
:1014200005D46FF0800101612046FFF7FDFE2068C2
:101430000169C943490609D4C168C943490605D4AD
:101440006FF040010161204600F01EF8206801693C
:10145000C94389060BD4C168C943890607D46FF014
:10146000200101612046BDE87040FFF7DEBE70BD7F
:101470007047704700680349884201D1FFF7DABD21
:1014800070470000001000407047FEE770B500F0A4
:10149000FBFA00F09BFD144C80210520226A91FA92
:1014A000A1F3B3FA83F39D000F23AB4091FAA1F1AE
:1014B000B1FA81F189009A438840024322620522F1
:1014C000A115204600F01FF905226115204600F005
:1014D0001AF90648016841F040010160BDE870401A
:1014E00003A000F081BF0000001402400050014042
:1014F00057656C636F6D6520746F20484C4C0D0A06
:1015000000000000044908B50A6802430A6009683F
:101510000140009108BD000030380240034A1430F9
:10152000515C0A5822F004020A50704754640008C3
:10153000034B595C435823F0606313434350704797
:1015400054640008034B595C435823F0C003134311
:101550004350704754640008034B595C435823F4CC
:10156000806313434350704754640008034B595C35
:10157000435823F4C0431343435070475464000856
:10158000034B595C435823F4907313434350704703
:1015900054640008034B595C435823F4007313430D
:1015A0004350704754640008034B595C435823F47C
:1015B000C05313434350704754640008034B595CB5
:1015C000435823F440331343435070475464000896
:1015D000F0B50A680F2692FAA2F2B2FA82F3032457
:1015E0008AE001279F4015EA07027DD04D68012D52
:1015F00001D0022D1BD18D68876892FAA2FCBCFA3B
:101600008CFC4FEA4C0C04FA0CFC27EA0C0792FA0B
:10161000A2FCBCFA8CFC4FEA4C0C05FA0CF52F43EB
:101620008760CD684768554397432F4347600F69EC
:10163000D0F80CC092FAA2F5B5FA85F54FEA450E3E
:1016400004FA0EF52CEA050C92FAA2F5B5FA85F526
:101650006D00AF404CEA070CC0F80CC04D68022D7D
:1016600033D192FAA2F5B5FA85F5082D15D2D1F845
:1016700014C0056A92FAA2F7B7FA87F7BF0006FA14
:1016800007F7BD4392FAA2F7B7FA87F7BF000CFA43
:1016900007FC45EA0C05056217E0D1F814E0476A3B
:1016A000150A95FAA5FCBCFA8CFC4FEA8C0C06FADC
:1016B0000CFC95FAA5F5B5FA85F5AD0027EA0C07FF
:1016C0000EFA05FE47EA0E0747624D68076892FA70
:1016D000A2FCBCFA8CFC4FEA4C0C04FA0CFE27EA84
:1016E0000E0792FAA2F200E005E0B2FA82F252008E
:1016F00095402F4307605B1C0A681546DA407FF46B
:1017000070AF0020F0BD30B5436A090A91FAA1F428
:10171000B4FA84F4A5000F24AC4091FAA1F1B1FA17
:1017200081F18900A3438A401343436230BD10B561
:10173000044600F081FC206000F054FC606000F082
:101740005FFCA060606800F069FCE06010BD10B54F
:1017500003680122C3F380132BBBD1E900231A4392
:10176000D1E9023423431A430B691A434B691A43E4
:101770008B691A43CB691A430B6A1A4303684FF605
:10178000BF74A3431A43026042684B6922F004020B
:1017900042EA134242600A6AB2F5005F02D1898CC4
:1017A00089B201610022C16921F40061C161104662
:1017B00010BD000001490860704700001C000020B7
:1017C000F0B50268254B264D264E274F274C4FF08B
:1017D000804C984209D0604507D0A84205D0B0425D
:1017E00003D0B84201D0A04205D1D1F804E022F0E4
:1017F000700242EA0E0298421BD0604519D0A842FE
:1018000017D0B04215D0B84213D0A04211D0184D15
:10181000A8420ED0174DA8420BD0174DA84208D0B1
:10182000164DA84205D0164DA84202D0154DA8422B
:1018300003D1CD6822F440722A4302608A68C262F2
:101840000A888262984201D0A04201D109690163ED
:10185000416941F0010141610020F0BD00000140FB
:101860000004004000080040000C0040000401405B
:101870000040014000440140004801400018004081
:10188000001C0040002000407FB50446C0680D46A3
:101890000126C0F34030E8BBE9686868AA690843DC
:1018A000296911430843E16849F20C6291430843F6
:1018B000E060A868216921F4405101432161686911
:1018C000616921F44071014361616846FFF72FFFB0
:1018D0001348844208D01348844213D012488442EB
:1018E00010D01248844201D103990CE01048844280
:1018F00008D01048844205D00F48844202D00F48D7
:1019000084420AD1029929B12B681BB100262046D6
:10191000AA6900E001E000F013F804B0304670BDA1
:101920000010014000440040004800400014014005
:10193000004C00400050004000780040007C004017
:101940002DE9F04106461920A1FB00011F460023A6
:1019500064243225B2F5004F27D0BB0FBA00FEF742
:10196000A1FC0146B0FBF4F06FF01802504301EB0C
:10197000800005EB0010B0FBF4F000F0F002B1FBCA
:10198000F4F002EB0012B1FBF4F06FF018035843CF
:1019900001EB800005EB0010B0FBF4F000F00F004D
:1019A000104480B2B060BDE8F081FA195B41FEF7E7
:1019B00079FC0146B0FBF4F00201B1FBF4F06FF0EA
:1019C0001803584301EB800005EBC000B0FBF4F0B6
:1019D00000F0F80002EB4002B1FBF4F0584301EBD9
:1019E000800005EBC000B0FBF4F000F00700D7E783
:1019F0002DE9F0410E4F00244FF4807626FA04F5CD
:101A0000BD611E20FFF7E4F9641CE4B2082CF5D395
:101A100008494FF4006088611E20FFF7D9F9064994
:101A20004FF480408861BDE8F0411E20FFF7D0B937
:101A30000018024000100240001402402DE9F0415D
:101A40000E494FF0804088611E20FFF7C1F90C4914
:101A50004FF0006088611E20FFF7BAF9094F00249B
:101A60004FF4807626FA04F52804B8611E20FFF7AB
:101A7000AFF9641C082CF5DBBDE8F08100140240CE
:101A80000010024000180240084910B54FF4804091
:101A900088610749C010886106494FF4FF7088616A
:101AA000FFF7CCFFBDE81040FFF7A2BF00140240D3
:101AB00000100240001802400F4810B50D490160A7
:101AC0000521416000214FF400328160C0E903121A
:101AD000520142610176012242768176C176017718
:101AE0004177FFF79FF8002803D0BDE81040FEF7CC
:101AF00098BF10BD006400400801002038B51448AC
:101B0000016841F4800101600068124C00F480001B
:101B1000009020680022C0F30220052100F03CFA6A
:101B200001463C2000F095FC3C2000F085FC20683C
:101B30000022C0F30220052100F02EFA01464420C5
:101B400000F087FCBDE83840442000F075BC000080
:101B5000303802400CED00E010B501210D4A084676
:101B600002F026FD0C4C0B4A0021E0606C3A0B4859
:101B700002F06AFD074A2060483A0021084802F056
:101B800063FD044A6060243A0021064802F05CFDCF
:101B9000A06010BD4464000800000020B1210008CE
:101BA000B5200008CD0900082DE9F04F87B01821B5
:101BB0006846FEF7C1FB0120FFF7A4FC0820FFF7F1
:101BC000A1FC8020FFF79EFC4020FFF79BFC20201B
:101BD000FFF798FC1020FFF795FC21484FF4701197
:101BE0008161204F4FF48001B961DFF87C904FF4A0
:101BF000FF78C9F81880DFF874B04FF4006ACBF8AA
:101C000018A00912B9613C21012500240326CDE961
:101C10000015CDE9026404946946FFF7D9FCCDE9CB
:101C20000264CDE90085694648460494FFF7D0FC7C
:101C300044F24000CDE90005CDE902646946049410
:101C40003846FFF7C5FCCDE90264CDE900A5694639
:101C500058460494FFF7BCFC07B0BDE8F08F0000C5
:101C6000001C024000140240001802400010024014
:101C700070B592B028216846FEF75EFB18210AA8CD
:101C8000FEF75AFB5B48016841F48011016000686F
:101C900000F48010109057481438016841F020017A
:101CA00001600068002400F0200010904FF4607084
:101CB0000A9002200B900320CDE90C040520CDE909
:101CC0000E400AA94C48FFF783FC4C4D4FF0606270
:101CD00005212846FFF72CFC002205212846FFF7A6
:101CE00031FC4FF4403205212846FFF767FC002203
:101CF00005212846FFF744FC002205212846FFF76E
:101D000049FC2E15324605212846FFF725FC002206
:101D100005212846FFF748FC002205212846FFF749
:101D200025FC05212846FFF7F9FB3204042128464B
:101D3000FFF7FEFB402204212846FFF703FCB20117
:101D400004212846FFF73AFC002204212846FFF729
:101D500017FC002204212846FFF71CFC3246042110
:101D60002846FFF7F9FB002204212846FFF71CFC58
:101D7000002204212846FFF7F9FB04212846FFF73B
:101D8000CDFB1F480068C0F30220C0F10701042901
:101D900000D90421021D072A01D2002000E0C01E44
:101DA00001228A40521E02F00501814008011549B6
:101DB00081F8000413494FF400104D39C1F80001B7
:101DC0004FF48270CDE900404FF40070CDE904403B
:101DD00003940A20CDE908400294069407940A4C23
:101DE00069462046FFF7B3FC606820F01000606091
:101DF00012B070BD4438024000140240006402403A
:101E00000CED00E055E000E00050014010B586B058
:101E100014216846FEF790FA2148016841F020013C
:101E20000160006800F0200005901E480068C0F3C3
:101E30000220C0F10701042900D90421021D072A4C
:101E400001D2002000E0C01E01228A40521E02F092
:101E500005018140144A0020090182F80014124A49
:101E60004FF40001333AC2F800110190592142F2B7
:101E70000F700E4CADF80010029069462046FFF737
:101E80009FFC206820F080002060606820F07000D7
:101E90006060A06820F08000A06006B010BD000067
:101EA000403802400CED00E037E000E00014004054
:101EB00010B58EB01C216846FEF73EFA182107A81F
:101EC000FEF73AFA2E48016841F48021016000686B
:101ED00000F480200D902A481038016841F0080174
:101EE00001600068002400F008000D904FF440707D
:101EF0000790022008900320CDE909040720CDE9CE
:101F00000B4007A91F48FFF763FB1F480068C0F399
:101F10000220C0F10701042900D90421021D072A6B
:101F200001D2002000E0C01E01228A40521E02F0B1
:101F3000050181400801154981F8000413498020FA
:101F40002339C1F800014FF4E130CDE900040C2041
:101F50000294CDE90340059406940D4C6946204651
:101F6000FFF792FC206920F490402061606920F026
:101F70002A006061E06840F40050E0600EB010BDDF
:101F800040380240000C02400CED00E027E000E089
:101F900000480040FEE7FEE730B500F00703C3F15C
:101FA0000704042C00D90424181D072801D200239B
:101FB00000E0DB1E012505FA04F0401E08409840B1
:101FC0009D406D1E1540284330BD0000044804218B
:101FD0008161082181611021816120218161704727
:101FE000001C024004490968044A01F0F001090993
:101FF000515CC84070470000083802405C6400082B
:1020000004490968044A01F4E05102EB912109787E
:10201000C8407047083802406C64000804490968E9
:10202000044A01F4604102EB51310978C84070471D
:10203000083802406C6400080748006810F00C0182
:10204000064807D0042904D0082903D1082000F04D
:1020500009B8034870470000083802400024F40023
:10206000001BB70010B5104A04460020116811F497
:1020700080030E4903D0B3F5800F00D10C49082C22
:1020800011D1106800F03F00B1FBF0F01168C1F30E
:10209000881148431168012201F4403102EB1141DB
:1020A0004900B0FBF1F010BD043802400024F400F8
:1020B000001BB7001FB502F089F801F08FFE02F097
:1020C00089F902F099FFDFF87C904FF0FF3A514612
:1020D000D9F8000003F08AFD01282FD102F0B2F8F0
:1020E00001F076FB01F0AEFDB7EE000A01F064FEF0
:1020F000DFF85480D8F82800FEF7C2FA06460F46EB
:10210000D8F82C00FEF7BCFA04460D46D8F830008B
:10211000FEF7B6FA8DE8F00041EC100B0BA053EC83
:10212000102B00F061F910494FF4800088610F48CE
:10213000002303220521006803F0A6FE052002F01B
:10214000FBF9C4E70C000020804A00207961772069
:1021500025662C70697463682025662C726F6C6C20
:102160002025660D0A00000000180240080000202B
:102170007047000000220D4903E0521CD2B2FA2A37
:102180000BD88B68C3F34003002BF6D008730020F4
:1021900005E0401CC0B2FA2801D9002070478A68C7
:1021A00012F0010FF5D0087B70470000005001408D
:1021B000012002F0C1F9FBE710B54FF0E020006903
:1021C00003F0D2FE012803D0BDE8104003F028BA86
:1021D00010BD0000304810B5016821F00F0141F03A
:1021E00005010160016801F00F010529FAD12B48B2
:1021F000016841F440410160016841F480310160AF
:102200002748016841F4803101600168C1F3404111
:102210000029FAD02249234A091D0B68224C234089
:102220001A430A600A6822F440320A60016841F0E9
:10223000807101600168C1F340610029FAD018483B
:102240000830016821F0F0010160016821F4E051DB
:1022500041F4A0510160016821F4604141F4004162
:102260000160016821F0030141F002010160016891
:1022700001F00C010829FAD10C48FFF79BFA0F2056
:10228000FEF7FAFE08B172B6FEE705488C30016829
:1022900021F08071016010BD003C024000700040E0
:1022A00000380240062D40000080BFFF0095BA0AAA
:1022B0000248016841F470010160704788ED00E058
:1022C0000148FFF722B8000030010020AFF3008082
:1022D0000E4808B5016911F0010F16D06FF0010129
:1022E00001610B494FF4001088610A486946006893
:1022F00003F091FB0098002807D007494FF0805069
:102300000860BFF34F8FBFF36F8F08BD001400400C
:10231000001802400C00002004ED00E0F0B5026857
:10232000254C264D264E274F274B4FF0804CA04280
:1023300009D0604507D0A84205D0B04203D0B842CA
:1023400001D0984204D122F0700E4A6842EA0E028F
:10235000A0421BD0604519D0A84217D0B04215D07A
:10236000B84213D0984211D0184DA8420ED0184D43
:10237000A8420BD0174DA84208D0174DA84205D04F
:10238000164DA84202D0164DA84203D122F4407542
:10239000CA682A434D6922F080022A4302608A6893
:1023A000C2620A688262A04201D0984201D10969E2
:1023B000016301214161F0BD0000014000040040C3
:1023C00000080040000C00400004014000400140B3
:1023D000004401400048014000180040001C00403B
:1023E000002000407047FEE70FB4054B10B503A96D
:1023F000044A029800F034FE10BC5DF814FB0000A3
:10240000B93700080001002003B40198410000988A
:1024100050EAC12018BF04204A0D18BF40F0010047
:1024200040F2FF72B2EB515F08BF40F0020001289A
:1024300008BF052002B07047002809DB00F01F022A
:10244000012191404009800000F1E020C0F8001116
:1024500070470907090E002804DB00F1E02080F82E
:102460000014704700F00F0000F1E02080F8141D08
:1024700070470907090E002804DB00F1E02080F80E
:102480000014704700F00F0000F1E02080F8141DE8
:10249000704700000000000070B5C1482DED020B30
:1024A0002DED0E8B82B0119D25F000449FEDBEDB1B
:1024B0009FEDBFEB84423EDBA4F140511098A1F1A7
:1024C0007F6108430FD0BC48844202DC28D11098B9
:1024D00030B39DED100B02B0BDEC0E8B02B0BDE829
:1024E000704000F0B0BC9DED100B53EC1D2B51EC77
:1024F000100BFDF7D3FF9DED100B41EC180B53ECC7
:102500001E2B51EC100BFDF7C9FF53EC182BFDF7F8
:102510001EFF41EC100B02B0BDEC0E8B02B070BD83
:10252000012000F0D5FC02B0BDEC0E8B02B0BDE87E
:10253000704000F09DBCA1489FEDA18B844256DA0B
:102540009DED100BB4F1795F0ADA51EC100BFFF737
:102550005BFF042808BF00F09BFC9DED100BDAE741
:1025600053EC102B51EC100BFDF798FF41EC190BBD
:1025700095480621B0EE490AF0EE690A784400F069
:10258000E6FB53EC192B51EC100BFDF787FF41ECE8
:102590001A0B8E48B0EE490AF0EE690A042178441D
:1025A00000F0D5FB53EC192B51EC100BFDF776FF27
:1025B00053EC182BFDF7CBFE41EC100B51EC1A0B32
:1025C00053EC102BFDF7DCFFCDE900019DED000B76
:1025D00053EC102B9DED100B51EC100BFDF75EFF33
:1025E0009DED101B53EC112BFDF7B1FED2E09DEDDC
:1025F000100B51EC100B01F0D2F853EC182BFDF737
:102600004AFF9FED730BCDE9000153EC102B9DEDBC
:10261000000B51EC100BFDF741FF41EC190B6E481C
:102620000621B0EE490AF0EE690A784400F08FFB0B
:1026300053EC192B51EC100BFDF730FF41EC1B0B49
:102640006648B0EE490AF0EE690A0421784400F0C9
:102650007EFB53EC192B51EC100BFDF71FFF53ECD5
:10266000182BFDF774FE41EC1C0B51EC190B02F01A
:102670008BFC41EC180B5A489FED5BABA04222DC6F
:1026800053EC1C2B51EC1B0BFDF77AFFCDE900013D
:102690009DED000B51EC180B53EC102BFDF7FEFEDB
:1026A00053EC182BFDF753FE53EC1A2BFDF7F6FEF7
:1026B00053EC1D2BFDF7ECFE53EC1E2BFDF7EBFE50
:1026C00041EC100B5FE08DED008B002000909DED44
:1026D000000B51EC180B53EC102BFDF738FE9DED61
:1026E000000B41EC1E0B53EC102B51EC100BFDF7C3
:1026F000D5FE53EC192BFDF7CEFE53EC1E2BFDF748
:102700003FFF41EC190B53EC1C2B51EC1B0BFDF75D
:1027100037FF41EC1B0B53EC1A2B51EC190BFDF757
:10272000BDFE53EC1D2BFDF7B6FE41EC190B53EC2F
:102730001A2B51EC180BFDF7B1FE53EC1B2BFDF7D8
:10274000ADFE53EC192BFDF7A3FE9DED000B41EC04
:10275000180B53EC1A2B51EC100BFDF79FFE9FED5D
:10276000249B53EC192BFDF796FE41EC100B51EC1A
:10277000180B53EC102BFDF78BFE53EC192BFDF7C8
:102780008AFE41EC100B002D3FF7C5AE51EC100B4B
:1027900081F0004141EC100BBDE60000000000009C
:1027A0000000F03F00000000075C143326A6913CB7
:1027B000182D4454FB21F93F0000F07F0000E03F5A
:1027C000000000000000F03F083F0000163F00003E
:1027D000000000000000E03F5A3E0000683E00009C
:1027E0003333EF3F00000000000000000000004015
:1027F000182D4454FB21E93F70B59B482DED020B89
:102800002DED068B079D25F00044A04218DC97486B
:10281000844202DC0AD1069840B19DED060BBDEC66
:10282000068B02B0BDE8704000F00DBB002DCCBFA0
:102830009FED8F0B9FED900BBDEC068B02B070BD32
:102840008F48A04215DD8F48A042D8BF4FF0FF341B
:1028500058DD9DED060B51EC100BFFF7D5FD04285C
:1028600008BF00F015FB9DED060BBDEC068B02B01A
:1028700070BD9DED060B51EC100B00F090FFCDE903
:10288000060181489FED828BA0423CDD8248A04238
:102890001FDD00249FED82AB9DED060B53EC1A2B40
:1028A00051EC100BFDF753FD9DED060B41EC190BA0
:1028B00053EC1A2B51EC100BFDF7F0FD53EC182BD9
:1028C000FDF7E6FD53EC192BFDF75AFECDE90601A5
:1028D00049E09DED060B012453EC182B51EC100B35
:1028E000FDF735FD9DED060B41EC190B53EC182B54
:1028F00051EC100BFDF7CCFD53EC192BFDF740FE0E
:10290000CDE906012FE06848A0421FDD02249FEDBB
:10291000689B9DED060B53EC192B51EC100BFDF74A
:10292000BDFD53EC182BFDF712FD9DED060B41ECA0
:10293000180B53EC192B51EC100BFDF7A9FD53ECC0
:10294000182BFDF71DFECDE906010CE09DED060BF1
:10295000032453EC102B9FED580B51EC100BFDF79B
:102960000FFECDE906019DED060B53EC102B51EC4B
:10297000100BFDF793FD41EC180B53EC182BFDF7F2
:102980008DFD41EC190B4E480621B0EE490AF0EEE0
:10299000690A784400F0DBF953EC182B51EC100B6A
:1029A000FDF77CFD41EC180B4648B0EE490AF0EE0D
:1029B000690A0521784400F0CAF953EC192B51EC4F
:1029C000100BFDF76BFD41EC100B51EC180B53ECA9
:1029D000102B002C0EDAFDF7BAFC9DED061B53EC14
:1029E000112BFDF75BFD9DED061B53EC112BFDF745
:1029F00052FD35E0FDF7ABFC9DED061B53EC112BB2
:102A0000FDF74CFD41EC100B2F48784400EBC4005F
:102A100090ED001B51EC100B53EC112BFDF738FD22
:102A20009DED061B53EC112BFDF732FD41EC100B15
:102A30002648784400EBC40090ED001B51EC100BCD
:102A400053EC112BFDF727FD41EC100B002DA2BF1D
:102A5000BDEC068B02B070BD51EC100B81F0004153
:102A600041EC100B01E70000000010440000F07F73
:102A7000182D4454FB21F93F182D4454FB21F9BF74
:102A80000000DC3F0000203E0000F33F000000009B
:102A9000000000000000F03F0000E63F00000000E2
:102AA0000000000000000040008003400000000023
:102AB000000000000000F83F000000000000F0BF30
:102AC000AA3B0000603B0000EA3A0000A23A000086
:102AD00070B56B4E2DED040B2DED028B82B0DDF841
:102AE0001CC0DDE905235C422CF000411C4341EA97
:102AF000D474049D22F00040B44205D86C422C43AB
:102B000040EAD474B4420BD99DED061B9DED040B35
:102B100002B0BDEC028B04B0BDE8704000F09DB97E
:102B2000ACF14054A4F17F641C430BD0022404EAAE
:102B3000AC7444EAD27405439FED538B9FED542B44
:102B400007D015E09DED040B51EC100B00F01FFEBB
:102B500042E0002C11BF012C9DED040B02B0BDEC36
:102B6000028B04BF04B070BD022C38D0032C3BD0C4
:102B70000B439FED491B9FED4A0B0AD0B14218D180
:102B8000B04209D121F0804120F0804007910590AA
:102B90000FE0002A15DA10E0434B7B44002C08BFFD
:102BA00093ED000B0DD0012C10D0022C17D0032C6C
:102BB0001AD0B0421DD1002A03DAB0EE410AF0EE7D
:102BC000610A02B0BDEC028B04B070BD93ED000B46
:102BD00051EC100B81F0004141EC100BF1E7B0EE2D
:102BE000480AF0EE680AECE7B0EE420AF0EE620A3C
:102BF000E7E7401A00153C28C8BF8DED000B19DC33
:102C0000BCF1000FBEBF10F13C0F9FED290B8DED05
:102C1000000B0FDB9DED060B53EC102B9DED040B11
:102C200051EC100BFDF7ACFC00F0B9FD00F0AFFD6E
:102C3000CDE90001002C08BF9DED000BC1D0012C97
:102C400010D0022C9FED1C0B53EC102B9DED000BB4
:102C500051EC100B0DD0FDF71BFC53EC182BFDF7BE
:102C600017FCB9E7019880F0004001909DED000B42
:102C7000A7E7FDF70DFC53EC182BFDF70CFCABE7B9
:102C80000000F07F00000000182D4454FB21094093
:102C9000182D4454FB2109C0182D4454FB21F9BFC1
:102CA000182D4454FB21F93FD239000000000000E8
:102CB0000000000000000000075C143326A6A13CC1
:102CC0002DED020B019820F0004001909DED000BCE
:102CD00002B0704700B52DED048BB0EE409AF0EED7
:102CE000609A83B051EC190BFDF7EDFD41EC180B28
:102CF00018EE100A18EE901A8DED008B002818BF00
:102D00000120084320F00040C0F17F6000F1E04066
:102D1000C00F14D019EE101A19EE900A8DED009B19
:102D2000002918BF0121084320F00040C0F17F6056
:102D300000F1E040C00F04BF012000F0C9F8B0EE80
:102D4000480A03B0F0EE680ABDEC048B00BD70B514
:102D500004462DED028B4D1E00EBC500B0EE408AFF
:102D6000F0EE608A90ED000B35F0060017D053ECC2
:102D7000182B51EC100BFDF791FB41EC100B6D1E65
:102D800004EBC50090ED001B51EC100B53EC112B24
:102D9000FDF7DDFA41EC100B35F00600E7D1022D0E
:102DA00036D0042D1CD0062D1CBFBDEC028B70BD8F
:102DB00053EC182B51EC100BFDF770FB94ED0A1B34
:102DC00053EC112BFDF7C3FA53EC182BFDF766FB00
:102DD00094ED081B53EC112BFDF7B9FA41EC100BE5
:102DE00053EC182B51EC100BFDF758FB94ED061B20
:102DF00053EC112BFDF7ABFA53EC182BFDF74EFB00
:102E000094ED040B53EC102BFDF7A1FA41EC100BE1
:102E100053EC182B51EC100BFDF740FB94ED021B0B
:102E200053EC112BFDF793FA53EC182BFDF736FBFF
:102E300094ED001B53EC112BFDF789FABDEC028BCE
:102E400041EC100B70BD10B553EC102B51EC100B76
:102E5000FDF77DFA41EC100B10BD10B553EC112BB2
:102E600051EC100BFDF773FA41EC100B10BD000094
:102E70009FED050B10B553EC102B51EC100BFDF72B
:102E80007FFB41EC100B10BD0000000000000000B3
:102E90009FED050B10B553EC102B51EC100BFDF70B
:102EA000FDFA41EC100B10BD000000000000001006
:102EB00002E008C8121F08C1002AFAD17047704703
:102EC000002001E001C1121F002AFBD17047000061
:102ED0000149086070470000040100202DE9FF5FF0
:102EE00082B00021DDE90430020DDDF840B003437B
:102EF00018D044F61050A2F2FF3242431514119834
:102F000001281FD0A5EB0B00401C5FEA000A4FF020
:102F100000064E4FDFF83891B046504615D5CAF13D
:102F2000000413E0119801244AA3012801D16FEA9B
:102F30000B010298119AC0E90031C0E9024206B0C3
:102F4000BDE8F09FCBF10000DFE704460021404AD6
:102F5000491842EB0450CDE9001012E0E00707D019
:102F600032463B4640464946FDF798FA8046894638
:102F700032463B4610461946FDF790FA06460F4684
:102F80006410002CEAD1DDE90401DDE90023BAF187
:102F9000000F06DAFDF782FA42464B46FDF77EFA4D
:102FA00005E0FDF7EDFA42464B46FDF7E9FA044627
:102FB0000E460022284BFDF777FB03D84FF0FF3079
:102FC000014607E00022254B20463146FDF7BFF9B8
:102FD000FDF7CAFC102409E0002C0ADB0A220023BA
:102FE000FDF760F9039B30321A55641E50EA010266
:102FF000F2D1641C039AC4F111031444119A012AFA
:1030000003D0012208430DD10AE0084304D0002078
:103010004FF0110B119072E7A3EB0B056D1E0DE045
:103020005B4504DD4FF0000205F1010504E003DA21
:103030004FF00002A5F10105002AECD00298119989
:10304000C0E90231C0E9004579E700000000144002
:103050000000F03F300000000000F0430000E03FBF
:103060002DE9FF4F95B09B468946064600250FE2A5
:10307000252877D100242746F84A0121059400E04D
:10308000044316F8013F203B01FA03F01042F7D148
:1030900030782A2811D06FF02F033078A0F1300259
:1030A000092A16D8059A44F0020402EB820203EBC7
:1030B00042021044761C0590EFE759F8042B059264
:1030C000002A03DA504244F40054059044F002040C
:1030D000761C30782E2816D116F8010F44F004041F
:1030E0002A280DD06FF02F023078A0F13003092B81
:1030F00009D807EB870302EB4303C718761CF3E7F5
:1031000059F8047B761C30786C280FD006DC4C28EC
:1031100017D068280DD06A2814D104E0742810D084
:103120007A280FD10DE044F400140AE044F480142E
:1031300001E044F440147278824202D104F5801414
:10314000761C761C307866280BD013DC582877D094
:1031500009DC002875D04528F6D04628F4D0472849
:103160001AD19DE118E0632835D0642879D065280C
:1031700012D195E1702873D008DC6728F1D0692856
:103180006FD06E280DD06F2806D1B5E073282CD0F3
:10319000752875D0782874D05A46179990476D1CB9
:1031A00075E1C4F30250022809D003280DD0D9F8E4
:1031B000001004280DD00D6009F1040967E1D9F869
:1031C0000010EA17C1E90052F6E7D9F800100D80A7
:1031D000F2E70D70F0E719F8041B8DF800100020DD
:1031E0008DF80100EA46012003E059F804AB4FF0E6
:1031F000FF3061074FF0000102D40DE008F101013A
:103200008846B9420FDA8045F8DB1AF80810002921
:10321000F4D108E008F1010188468142FADB1AF88E
:1032200008100029F6D105985B46A0EB0807214657
:103230003846179A00F094FA284400EB080507E096
:103240004DE029E10DE01AF8010B5A461799904715
:10325000B8F10108F7D25B4621463846179A13E1C8
:1032600042E00A220092C4F302524FF0000A022AFE
:1032700008D059F804CB032A4FEAEC710AD00DE0CC
:1032800029E02AE009F1070121F00702F2E802C172
:10329000914609E00FFA8CFC4FEAEC71042A03D145
:1032A0004FFA8CFC4FEAEC71002907DA0A4600213C
:1032B000DCF1000C61EB02012D2202E0220504D5B5
:1032C0002B228DF80420012203E0E20701D0202206
:1032D000F7E7904659E00A2102E010220DE01021A4
:1032E0004FF0000A00910BE010224FF0000A44F06A
:1032F00004040827009203E008224FF0000A00921D
:10330000C4F30252022A05D059F804CB0021032A43
:1033100008D009E009F1070121F00702F2E802C133
:10332000914605E01FFA8CFC042A01D10CF0FF0C39
:103330004FF00008220728D5702806D0009B83F0A4
:10334000100353EA0A0305D00EE040228DF8042052
:10335000012208E05CEA010206D030228DF8042048
:103360008DF8050002229046009B83F0080353EA83
:103370000A030AD15CEA010201D1620705D53022B5
:103380008DF804204FF001087F1E582804D034A087
:1033900003900EA802900DE036A0F9E75346604670
:1033A000009AFCF77FFF84460398825C0298401ED7
:1033B000029002705CEA0100F0D1029806A9081A96
:1033C00000F1200A600702D524F4803400E00127D0
:1033D000574502DDA7EB0A0000E0002000EB0A01E0
:1033E000009005984144401A0590E00306D45B46DE
:1033F0002146179A059800F0B3F90544002706E026
:1034000001A85A46C05D179990476D1C7F1C47451F
:10341000F6DBE0030CD55B462146179A059800F0D1
:103420009FF9054404E030205A46179990476D1CD7
:103430000099481E00900029F5DC08E002980299E6
:103440005A460078491C0291179990476D1CBAF1B1
:103450000001AAF1010AF1DC65E100000928010080
:1034600030313233343536373839616263646566FA
:1034700000000000303132333435363738394142BC
:10348000434445460000000000F058F90544761C0E
:10349000307800287FF4ECAD19B02846BDE8F08FF5
:1034A000620700D4062709F1070222F0070CFCE8A6
:1034B0000223E14603F000485FEA080C02D00FF255
:1034C000702C0DE05FEA045C02D50FF2682C07E077
:1034D0005FEAC47C02D00FF2602C01E0AFF2700C06
:1034E0004FF0FF3823F00043CDF850C065280CD0D2
:1034F00006DC452809D046281DD047283DD13DE0AF
:10350000662818D067287ED138E00021112F01DB12
:10351000112000E0781CCDE9000106A90EA8FFF7F4
:10352000DDFCDDE90F010E9A03910021009207F105
:10353000010A04914DE04FF000400097CDE90110E1
:1035400006A90EA8FFF7CAFCDDE90F0203920E9B45
:1035500011990022DDF80CA00093049211B9791C96
:1035600000EB010AB7EB0A0004D4C0F1FF3007F109
:10357000010A0490AAEB0700019044E0012F00DA51
:1035800001270021112F01DD112000E03846CDE98F
:10359000000106A90EA8FFF7A1FCDDE90F010E9AB4
:1035A0000391002104910092BA4621070CD403999B
:1035B000514500DA8A46BAF1010F05DD009AAAF1F9
:1035C0000101515C302908D0B84202DA10F1040F31
:1035D00006DA0121CDE9011015E0AAF10101E9E7C0
:1035E000002805DC049901440491AAEB000102E0E3
:1035F000411C514500DD8A460499401A401C019047
:103600004FF000400290200704D40198504501DBA0
:10361000CDF8048000208DF84F0002980DF14F077F
:10362000B0F1004F25D02B200E9002984FF00208E9
:1036300000280CDA404202902D200E9007E00A216B
:103640000298FDF765F83031029007F8011DB8F1D6
:103650000001A8F10108F2DC02980028EFD1791EE0
:103660000E980870307800F0200040F0450007F810
:10367000020D12A8C01B00F107081498007800B1D1
:10368000012000EB0A01019801EBE071059841442B
:10369000401A401E0590E00306D45B462146179A67
:1036A000059800F05DF805441498007818B15A4662
:1036B000179990476D1CE00324D55B462146179A65
:1036C000059800F04DF805441CE00498002807DB3D
:1036D000DDE90301884203DD0098405C179901E0B1
:1036E000179930205A469047049805F10105401C6F
:1036F00004900198401E019004D12E205A4617993B
:1037000090476D1CBAF10001AAF1010ADDDC05E069
:1037100017F8010B5A46179990476D1CB8F1000134
:10372000A8F10108F4DC5B462146179A0598ABE640
:103730002D0000002B000000200000002DE9F041CA
:10374000044600251E461746880404D405E0394681
:103750002020B0476D1C641EF9D52846BDE8F081D5
:103760002DE9F041044600251E469046C80301D5C8
:10377000302700E02027880404D505E0414638467C
:10378000B0476D1C641EF9D52846BDE8F08110B520
:1037900041EC100BFFF730F851EC100B10BD82B06C
:1037A000CDE9000121F0004001909DED000B02B039
:1037B00051EC100B704700000449C2B24A600A681D
:1037C000C2F38012002AFAD070470000004800407F
:1037D00010B5FF4CFF482DED108B94ED010AD4ED90
:1037E000010A20EE20FA94ED010AD4ED020A20EE3F
:1037F00020CA94ED010AD4ED030A60EE20BA94EDDC
:10380000010AD4ED040A60EE20CA94ED020AD4ED58
:10381000020A20EE20DA94ED020AD4ED030A20EE2B
:10382000209A94ED020AD4ED040A20EE20BA94ED19
:10383000030AD4ED030A60EE20AA94ED030AD4ED46
:10384000040A20EE20AA94ED040AD4ED040A60EEE6
:10385000209A90ED040A84ED080A90ED050A84EDA3
:10386000090A90ED060A84ED0A0AB0F9001000EE8C
:10387000101AB8EEC00A84ED0B0AB0F9021000EE7F
:10388000101AB8EEC00A84ED0C0AB0F9041000EE6C
:10389000101AB8EEC00A84ED0D0AB0F9061000EE59
:1038A000101AB8EEC00A84ED0E0AB0F9081000EE46
:1038B000101AB8EEC00A84ED0F0AB0F90A0000EE43
:1038C000100AB8EEC00A84ED100AFDF7ADFBA06443
:1038D000A06C616C401A00EE100AB8EE400ADFEDF1
:1038E000BE0AA06CC0EE208A606494ED0B0AD4ED91
:1038F0000B0A94ED0C1A20EE200AD4ED0C0A00EE0F
:10390000810AD4ED0D0A94ED0D1A00EE810A00F043
:103910006BFBD4ED0B0A60EE800AC4ED0B0AD4ED0C
:103920000C0A60EE800AC4ED0C0AD4ED0D0A20EEFC
:10393000800A84ED0D0A9FEDA90AB6EE001A84ED07
:103940000E0A84ED0F0A84ED100A71EE6A0A94EDF6
:103950000E0AB0EE008A39EE6CEA20EE080A70EE2C
:10396000E9EA7BEE2B1A31EE4D1A60EE2E0A94ED49
:103970000F0A31EE692A71EE6ADA20EE080A40EE8B
:103980000E0A94ED100A20EE080A40EE210A94ED8A
:103990000E0A79EE2C1A7BEE6BCA20EE080A60EE56
:1039A000A00A20EE210AD4ED0F1A61EE881A01EE6A
:1039B000820AD4ED101A3AEE4C2A61EE881A01EE12
:1039C000820AD4ED0E1A3AEE0C2A61EE881A40EE05
:1039D000000A21EEAC9AD4ED0F1A10EE900A61EEB7
:1039E000881A01EE829AD4ED101A61EE881A01EE5F
:1039F000AD9AFCF745FE41EC100BFFF76BF951EC6B
:103A0000100BFCF769FE7FEE4D0A00EE100A7CEE0B
:103A10000A3A94ED104A70EEEA0A60EE081A29EEAE
:103A2000080A63EE882A30EEA93A61EE8E0A21EE8A
:103A3000AE1A2CEE882A40EE230A7BEE8B3A00EE7B
:103A40002C1A61EEA31AD4ED0D3A40EE2D1A94ED26
:103A50000C0A20EE030A03EEE20AD4ED0F3A63EEFD
:103A6000A13A44EE603A94ED0B4A30EE230AD4EDCD
:103A70000D3A63EE823AB5EEC00A44EE433A94ED55
:103A8000103A94ED0E4A23EE013A04EE613A73EED9
:103A9000831A94ED0B3A63EE222A94ED0C3A43EE2E
:103AA000422A94ED0E2A62EE200A94ED0F2A42EE8D
:103AB000410A72EEA00AF1EE10FA41D0F5EEC01AFA
:103AC000F1EE10FA3CD0F5EEC00AF1EE10FA37D064
:103AD0009FED431A94ED052A60EE012A02EEA82A12
:103AE00061EE812A84ED052A94ED062A02EEA82AC9
:103AF00084ED062A20EE812A94ED071A02EE281A98
:103B000084ED071A94ED081A00EE081A94ED050AE0
:103B100031EE000A84ED080A94ED090A94ED061AC4
:103B200001EE880A30EE010A84ED090A94ED0A0AD2
:103B300000EE880AD4ED070A30EE200A84ED0A0A66
:103B400094ED020AD4ED080A94ED091A94ED013AB5
:103B500020EEC00AD4ED030AD4ED021A94ED032A34
:103B600000EEC10AD4ED040A94ED0A1A00EEC10A6F
:103B7000D4ED080A94ED0A1A00EE283A94ED010AF1
:103B800020EE200AD4ED030A00EE810AD4ED040AE7
:103B900094ED091A00EEC10AD4ED090A94ED0A1A4F
:103BA00040EE281A94ED010A20EE200AD4ED020A14
:103BB00000EEC10AD4ED040A94ED081A00EE810A61
:103BC000D4ED0A0A00EE282A94ED010A0AE000006A
:103BD000A00000204C4A00200000FA440000000031
:103BE0000AD7233C20EE200AD4ED020A94ED091AEC
:103BF000D4ED042A00EE810AD4ED030A94ED081AEC
:103C000000EEC10A40EE282A23EE030A01EEA10AC3
:103C100002EE020A02EEA20A00F0E6F963EE000AE2
:103C2000C4ED010A61EE800AC4ED020A62EE000AE8
:103C300022EE800AC4ED030A84ED040ABDEC108B69
:103C400010BD000070B5564C2DED068BF8EE008AC5
:103C5000B0EE008AB7EE00AA94ED030AD4ED030A91
:103C600094ED041A20EE280A20EE200AD4ED040A6E
:103C700060EE880A00EEC10A30EE0A0A10EE100A61
:103C8000FCF7FEFC94ED020AD4ED030A94ED041A4D
:103C900020EE080A41EC190B20EE200AD4ED010AAF
:103CA00060EE880A00EE810A10EE100AFCF7E8FCCC
:103CB00041EC100BB0EE491AF0EE691AFEF708FF5E
:103CC0009FED389B51EC100B53EC192BFCF7E6FBE6
:103CD000FCF702FD354D286394ED020AD4ED040A89
:103CE00094ED031A20EE280A20EE200AD4ED010AF2
:103CF00060EE880A00EE810A10EE100AFCF7C0FCA4
:103D000041EC100BFEF7C8FB53EC192B51EC100BD8
:103D1000FCF7C4FBFCF7E0FCE86294ED020AD4ED8A
:103D2000020A94ED031A20EE280A20EE200AD4EDB0
:103D3000030A60EE880A00EEC10A30EE0A0A10EEAD
:103D4000100AFCF79DFC94ED030AD4ED040A94EDEF
:103D5000021A20EE080A41EC190B20EE200AD4EDDD
:103D6000010A60EE880A00EE810A10EE100AFCF7E4
:103D700087FC41EC100BB0EE491AF0EE691AFEF721
:103D8000A7FE9FED0B1B51EC100B53EC112BFCF716
:103D900085FBFCF7A1FCA862BDEC068B70BD0000A2
:103DA000A00000206666666666A64CC04C4A0020ED
:103DB0006666666666A64C40074800F1340190EDE1
:103DC0000C0A81ED0C0A90ED0B0A81ED0B0A90EDC7
:103DD0000A0A81ED0A0A70474C4A002010B5624871
:103DE0002DED068BB0F90610B0F908009FED5F8B42
:103DF0009FED60AA604C00295ADADFED609A9FEDD2
:103E0000609A002822DA91FBF0F0FCF728FC41ECE4
:103E1000100BFEF755FF53EC182B51EC100BFCF771
:103E200043FC06D884ED01AAC4ED029A9FED550A21
:103E300026E09FED550A84ED010AC4ED029A9FED3C
:103E4000530A84ED030A9FED520A2EE01CDD91FB1C
:103E5000F0F0FCF704FC41EC100BFEF731FF53ECE3
:103E6000182B51EC100BFCF71FFC10D89FED490AE2
:103E700084ED010A9FED480A84ED020A9FED470A8E
:103E800084ED030A84ED049ABDEC068B10BD9FED12
:103E9000440A84ED010A9FED430A84ED020A9FED76
:103EA000420A84ED030A9FED410A84ED040AEBE720
:103EB000EADD00289FED3E9A2ADD91FBF0F0FCF749
:103EC000CEFB41EC100BFEF7FBFE53EC182B51EC34
:103ED000100BFCF7E9FB0ED89FED360A84ED010AC2
:103EE0009FED350A84ED020A9FED340A84ED030A42
:103EF00084ED04AAC8E79FED320A84ED010A9FED24
:103F0000310A84ED020A84ED039A9FED2F0ACCE773
:103F1000BADA91FBF0F0FCF7A2FB41EC100BFEF7D4
:103F2000CFFE53EC182B51EC100BFCF7BDFB0CD85B
:103F30009FED260A84ED010A9FED250A84ED020A11
:103F400084ED039A9FED230AAFE79FED230A84EDEA
:103F5000010A9FED220A84ED020A9FED210A84EDF9
:103F6000030A9FED200AA0E74C4A00200000000051
:103F70000000F03F14AE473EA00000208FC275BC89
:103F8000BE9F7A3F04E78C3B7B140E3FA69BC43B4D
:103F90005839543FCBA145BEBC7413BCA69BC4BBCF
:103FA000DF4F0DBF52499DBB7F6A3CBC14D0543FCC
:103FB00070CE88BCFA7E7ABF6F12033C0AD7A3BCCE
:103FC000C8987BBF6F12033B5B420E3FBE9F7ABF18
:103FD000ED0D3E3C14AE47BEE17A54BF4260653CF5
:103FE000A69B44BC04560EBF10EE100AF6EE000A63
:103FF000074960EE200AA1EB600000EE100A20EEF7
:10400000801AF7EE080A41EE400A20EE800A704757
:10401000DF59375F06220146492000F043BA10B548
:1040200030216A2000F070FA0A20FCF7D1FE0D2141
:10403000242000F069FA0A20FCF7CAFE0E2128208D
:1040400000F062FA0A20FCF7C3FE8E21312000F056
:104050005BFA0A20FCF7BCFE01210B2000F07BF884
:104060000A20FCF7B5FE002000F059F8102801D016
:10407000012010BD01210B2000F06DF80A20FCF793
:10408000A7FE00210A2000F066F80A2000F047F899
:1040900008B1022010BD0A20FCF79AFE00210B2077
:1040A00000F059F80B2000F03AF808B1032010BDD9
:1040B0000A20FCF78DFE2421412000F04CF841201D
:1040C00000F02DF8242801D0042010BD0A20FCF7B0
:1040D0007FFEC021422000F03EF8422000F01FF891
:1040E000C02801D0052010BD0A20FCF771FE002178
:1040F0002A2000F009FA0A20FCF76AFE0021342089
:1041000000F002FA0A20FCF763FE062203210E20CB
:1041100000F018F96420FCF75BFE002010BD10B51C
:104120000146322000F0F0F90A20FCF751FE802110
:10413000342000F0E9F90A20FCF74AFE352000F0AF
:104140009BF904460021342000F0DEF90A20FCF738
:104150003FFE204610BD70B50D46044600212A20C2
:1041600000F0D2F90220FCF733FE2146292000F0AE
:10417000CBF90220FCF72CFE2946642000F0C4F99C
:104180000220FCF725FE81212A2000F0BDF9BDE8C0
:1041900070400A20FCF71CBEFCF754FFFEF71AF82B
:1041A000FDF702FDFDF7AAFCFDF786FCFDF72EFEEC
:1041B000FDF77EFEFDF75CFDFDF768F900F0CAF93A
:1041C000FDF7CAFC00F0D8F9FEE7000070B586B034
:1041D0006420FCF7FDFD752000F04EF9144E00241C
:1041E0001422B07013496846FCF78DF84FEA0D05AC
:1041F00005EB4400417815F8140000F085F9012022
:10420000FCF7E6FD641CE4B20A2CF1D3B1780AA0F5
:10421000FEF7EAF8032000F072F9022000F06AF9D4
:10422000FFF7FDFE00F0D6F806B0002070BD0000DC
:10423000A0000020746400086964203D2025640DFE
:104240000A00000010B50E2239493B2000F02AF97F
:10425000374800F10E04018849BA2180418849BAE3
:104260006180818849BAA180C18849BAA181018948
:10427000628B49BA891AE1814189A28B49BA891AAC
:1042800021828089E18B40BA401A60822948FFF779
:10429000C1FE2849A4F176004C399FED271ACA6C5B
:1042A000C267B1F85010A0F88010D0F87610016005
:1042B000D0F87A104160D0F87E108160B4F90C001B
:1042C00000EE100AA4F17600F8EEC00A80EE810A32
:1042D000F3EE050A30EE200A80ED030AB4F90E1061
:1042E00000EE101AF8EEC00A9FED140A80EE801A54
:1042F000DFED130AC1EE201AC0ED041AB4F9101054
:1043000001EE101AF8EEC11A81EE801AC1EE201AE1
:10431000C0ED051AB4F9121001EE101AF8EEC11A28
:1043200081EE801A81EE200A80ED060A10BD0000A1
:10433000B44A0020EC0000205CEFA6436F128341DA
:104340003333654270B50E460446014615462820B3
:1043500000F0DAF80220FCF73BFD0A21292000F0EA
:10436000D3F80220FCF734FD0121642000F0CCF8E2
:104370000220FCF72DFD44F08001252000F0C4F858
:104380000220FCF725FD3146262000F0BDF8022072
:10439000FCF71EFD0321342000F0B6F80220FCF7E4
:1043A00017FD0321672000F0AFF80220FCF710FD95
:1043B00081212A2000F0A8F80620FCF709FD45F02D
:1043C0008001272000F0A0F8BDE870400220FCF733
:1043D000FFBC00002DE9F041264E002706F10E0437
:1043E0004FF496750E2223493B2000F05BF831888C
:1043F000A08A49BA0844A0827188E08A49BA084470
:10440000E082B188208B49BA084420833189608BCF
:1044100049BA084460837189A08B49BA0844A083D3
:10442000B189E08B49BA0844E0830520FCF7D0FC51
:104430007F1CAF42D6DBB4F9140090FBF5F0A082EC
:10444000B4F9160090FBF5F0E082B4F9180090FB87
:10445000F5F02083B4F91A0090FBF5F000B2608308
:1044600090FBF5F0A083B4F91E0090FBF5F0E0831B
:10447000BDE8F081B44A002070B5084C4FF48001CB
:10448000A161074D40F080002870FDF773FEFF200A
:10449000FDF770FE68704021A16170BD00140240FC
:1044A000A00000202DE9F041104F88464FF4800114
:1044B00015460024B9610E4E40F0800006F152010D
:1044C00030700870FDF756FE08E03078FDF752FEB8
:1044D00008F80400641C6D1EE4B2EDB2002DF4D1A6
:1044E0004020B8610020BDE8F081000000140240C7
:1044F000A0000020C006010E1C2000F005B8C00678
:10450000010E1B20AFF3008070B5094D0C464FF42F
:104510008001A961074E00F07F003070FDF72AFE90
:1045200020463470FDF726FE4021A96170BD0000D1
:1045300000140240A000002010B5EFF3058111B176
:104540006FF0050403E0002408B100F0C1FE20462E
:1045500010BD0000EFF3058010B16FF0050070474B
:104560000448016811B14FF0FF307047012101602C
:10457000002070477000002010B5EFF3058010B1E7
:104580006FF0050010BD08480168012902D04FF006
:10459000FF3010BD054A002182F8141D0221016080
:1045A00000F046FF002010BD700000200BE000E08E
:1045B000F8B5144603460E464FF00005EFF30580AC
:1045C00098BB93B39E423DD84CB1A0680028E068E8
:1045D00003D0502836D3012002E008B132E0002099
:1045E000012B05D010B31846A26801F04CF820E06A
:1045F00040B103200090002211460120A36801F081
:1046000083F804E003220021012001F05CF805009A
:1046100018D086B100231A46194601F0EDF801289A
:1046200009D0284600F006FE00250BE0184601F0F0
:104630000DF8050006D00CB1216800E000212846E5
:1046400000F0E4FD2846F8BD2DE9FF414FEA0103E3
:104650004FF00005EFF30581039549BB40B3802778
:10466000182100244AB3166806B1344696691EB173
:104670003146761E382E02D21679F60703D0002076
:1046800004B0BDE8F081566906B1B708D2F808C099
:10469000BCF1000F0DD0D5685C2D18D312693AB16A
:1046A00036B18DE806103A46214601F0C2FB039070
:1046B0000DE0D6685EB912694AB903AACDE90012C5
:1046C000BAB2214601F088FB012800D00395039877
:1046D000D6E700002DE9F041134C0F460546E66889
:1046E0002068001D00F094FC681C07D137B12168D8
:1046F000BDE8F0410D48091D00F0DABC20683544E2
:10470000B5424560216805D2A06BBDE8F041091DA6
:1047100000F0B6BC606B091D00F0B2FCA06A8542D7
:1047200000D2A562BDE8F0812000002068060020CC
:104730002DE9F041054600F0C7FC2D4CA068401C57
:10474000A06020682B4F10B1606930B32BE025606A
:10475000A068012827D1002606EB860007EB800021
:1047600000F080FC761C382EF6D3234800F07AFC4B
:104770002148143000F076FC1F48283000F072FC0D
:104780001D483C3000F06EFC1B48503000F06AFCC5
:10479000194860631430A06305E02068E96AC06AC4
:1047A000884200D82560606A401C60626864E86ADC
:1047B0002169884200D9206100EB800007EB80006E
:1047C000291D00F075FC00F09FFC606900280CD0EA
:1047D0002068E96AC06A884207D208494FF08050D1
:1047E0000860BFF34F8FBFF36F8FBDE8F08100000B
:1047F00020000020B80100201806002004ED00E091
:1048000038B500F061FC104C2068C8B90F4800F0C2
:1048100029FC0E48143000F025FC0C48E0601430F0
:1048200020610A4B0020F03B009003F15002102160
:104830000A2000F069FF206010B105A100F0E6FC3D
:10484000BDE8384000F060BC5C0000206C07002030
:10485000546D72510000000030B4026C0B46002A07
:104860000BD0C1681144C1608468A14201D30168C2
:10487000C16030BC1846FBF746BD30BC70472DE91F
:10488000F041856B174604460026026C82B1C7B121
:10489000E068FBF738FDE168206C091AE1602268E6
:1048A000914202D2A168081AE060022F16D017E0E8
:1048B0002068A8B9A06801F015FC06460020A06099
:1048C0000EE06068FBF71FFD216C606808446060C3
:1048D000A168884204D32068606001E005B16D1EC4
:1048E0006D1CA5633046BDE8F08110B5044690F814
:1048F000590058B101280CD002280FD0502080F365
:104900001188BFF34F8FBFF36F8FFEE7206B00F06E
:104910000FFC2046BDE8104000F00ABC10BD0000AE
:1049200010484FF47051420706D0C01D0D4920F0C9
:104930000700411AC1F570510B4A00230144C2E936
:1049400000030839183A21F0070111604B600B6031
:104950000B1AC0E9001393604FF0004053605061A0
:10496000704700004C0E00208C000020144E154CA7
:10497000A6F29C474FF08058DFF84C9012E000BF41
:1049800000F0A2FBF068C568281D00F041FBA0689C
:10499000401EA0606068401E606000F0B5FB2846C5
:1049A000FFF7A3FF60680028EAD138680128F9D929
:1049B000C9F80080BFF34F8FBFF36F8FF2E700009D
:1049C000540600202000002004ED00E070B51D46D4
:1049D000049C51B1C4F80020C4E90F010121204614
:1049E00000F0C6FE84F84C5070BD2460F4E700006F
:1049F0002DE9F05F8846DDE90B941546834691006A
:104A00009A460A9EA522206BFBF78FFC6FF00301EC
:104A1000206B01EB8501084420F00707780707D0D9
:104A2000502080F31188BFF34F8FBFF36F8FFEE7E5
:104A30000025B8F1000F0FD05FF00000221818F821
:104A4000001082F8341018F8001011B1401C102822
:104A5000F4D384F8435001E084F83450382E00D366
:104A60003726E662C4E91365201D00F006FB04F159
:104A7000180000F002FB2461C6F138006462A061F6
:104A8000656584F8585052465946384600F066FA33
:104A90002060B9F1000F01D0C9F80040BDE8F09FD7
:104AA00030B5114900E011460A688242FBD34B68D9
:104AB0005C18844203D14068184448600846436843
:104AC0001C18944209D1084C183C2468A24209D011
:104AD00052681A4442600A6812680260814200D03B
:104AE000086030BD0460F9E78C00002070B5002438
:104AF00041600B4D0061914206D8D11A8269914202
:104B000006D2011D286907E09A4203D2994201D3D7
:104B1000012403E0011DE86800F0B2FA204670BDF0
:104B20005C00002010B5044600F0CEFAA06B28B15E
:104B30005FF0000400F0E8FA204610BD0124F9E718
:104B400030B589B03C4D6EE00498002806DADDE906
:104B50000601059A90470498002864DB069C60696A
:104B600010B1201D00F054FA03A800F0D7F8024657
:104B700004980A2857D2DFE800F00505052D334ACE
:104B800005052D3394F8280040F0010084F8280032
:104B90000599A069059B01442046FFF7A7FF68B36C
:104BA000216A2046884794F8280040073BD500201A
:104BB00000900598A169002342181946204601F08B
:104BC000D7FBD8B9502080F31188BFF34F8FBFF3C4
:104BD0006F8FFEE714F8280F20F00100207022E00C
:104BE00094F8280040F0010084F828000598A0619E
:104BF00028B1811813462046FFF778FF13E05020B4
:104C000080F31188BFF34F8FBFF36F8FFEE794F8E7
:104C10002800810703D4204600F08AFA03E020F040
:104C2000010084F82800002204A9286800F042FF4F
:104C3000002889D109B030BD5C0000202DE9FC417D
:104C40000F46054600F038FC01A800F067F804465E
:104C5000019818B101F0FAFABDE8FC81254EAFB118
:104C600030690068D0B30027291B3A46306800F04D
:104C70000DFB01F0EBFA0028EED11F494FF08050F8
:104C80000860BFF34F8FBFF36F8FE5E7A542EBD806
:104C900001F0DCFAF0682746C068C468201D00F007
:104CA000B7F994F82800410719D5A0692B46411996
:104CB0003A462046FFF71AFFA8B1002003460146F6
:104CC00000902A46204601F053FB60B9502080F343
:104CD0001188BFF34F8FBFF36F8FFEE707E020F01F
:104CE000010084F82800216A20468847B4E701279C
:104CF000BAE700005C00002004ED00E00648416BCC
:104D0000096829B1416BC968C968496881627047FF
:104D10004FF0FF31FAE700002000002070B5054693
:104D200001F030F9064E0446B068844203D200F028
:104D300009F8012000E0002028602046B46070BD22
:104D40005C000020F8B5194D20E0C068C468066812
:104D5000201D00F05DF9216A2046884794F828005C
:104D6000400713D5A0693044B04206D92461606081
:104D7000211DE86800F084F908E0002003460146A0
:104D800000903246204601F0F3FA38B1E868016835
:104D90000029DAD12969C5E90310F8BD502080F354
:104DA0001188BFF34F8FBFF36F8FFEE75C000020C9
:104DB00008484068401C4FF0500080F3118804D030
:104DC000BFF34F8FBFF36F8FFEE7BFF34F8FBFF37C
:104DD0006F8FFEE794000020074CE068016841B146
:104DE000C0680021D0F80000FFF728FFFFF7A8FEF9
:104DF000F3E701210020F7E75C0000202DE9F041F6
:104E0000044600F061F994F9455004F1240609E0E4
:104E1000606A48B1304601F0E1F908B100F086FA65
:104E20006D1E6DB2002DF3DC4FF0FF3684F8456047
:104E300000F06AF900F048F994F9445004F11007C1
:104E400009E0206948B1384601F0C8F908B100F01E
:104E50006DFA6D1E6DB2002DF3DC84F84460BDE880
:104E6000F04100F051B900002DE9F041054600275E
:104E700000F022FB324E306808B9FFF751FD70692F
:104E800005424ED1C5B3083568070ED005F00700BE
:104E9000C0F108000544680707D0502080F311884E
:104EA000BFF34F8FBFF36F8FFEE72DB3706885425E
:104EB00037D82348183001460C6801E020460C46DC
:104EC0006168A94202D221680029F7D131688C4279
:104ED00027D007682168016060680837411B1029E6
:104EE0000FD96019420708D0502080F31188BFF312
:104EF0004F8FBFF36F8FFEE713E041606560FFF7F0
:104F0000CFFD61687068401A7060B268904200D24C
:104F1000B060706901430020C4E90001F068401CE2
:104F2000F06001F093F9780707D0502080F31188E2
:104F3000BFF34F8FBFF36F8FFEE73846BDE8F081B8
:104F4000740000200449086818B10868026D521CFA
:104F500002650868704700002000002010B5031F9C
:104F60004FF080741C601B1F21F001011960191F94
:104F7000044B0B6014390A60091F6FF002024438B9
:104F80000A6010BDB14D000800B52DED048B83B053
:104F900041EC190BFBF797FC41EC180B18EE100ACB
:104FA00018EE901A8DED008B002818BF01200843E1
:104FB00020F00040C0F17F6000F1E040C00F14D04D
:104FC00019EE101A19EE900A8DED009B002918BFFA
:104FD0000121084320F00040C0F17F6000F1E04073
:104FE000C00F04BF0120FDF773FF51EC180B03B095
:104FF000BDEC048B00BD00000448C16841F0010114
:10500000C160016841F00101016070470014004077
:10501000D0E9013201699A60D0E901235A604A68F7
:10502000824201D182684A60002202610868401E03
:105030000860086870470000034B036003F15C00E0
:10504000086080201060704794070020044B0360C4
:1050500003F15C0008604FF480701060704700003E
:10506000F009002000F108014FF0FF32C0E9011201
:10507000C16001610021016070470021016170473A
:1050800030B50B685A1C02D000F1080202E0026938
:1050900004E02246546825689D42FAD953684B6063
:1050A00099608A60516008610168491C016030BDE7
:1050B00042684A6093688B609368596091600861A8
:1050C0000168491C01607047502080F31188BFF3CC
:1050D0004F8FBFF36F8F0A494868401C4860012812
:1050E0000CD10848006810F0FF0F07D0502080F363
:1050F0001188BFF34F8FBFF36F8FFEE7704700003B
:105100009400002004ED00E00849486828B1401EE2
:10511000486001D180F311887047502080F31188D6
:10512000BFF34F8FBFF36F8FFEE7000094000020A6
:1051300070B500282AD0164DA0F10804606869698E
:10514000084207D1502080F31188BFF34F8FBFF37F
:105150006F8FFEE722683AB1502080F31188BFF3C9
:105160004F8FBFF36F8FFEE78843606000F0A4F9B4
:1051700060686968084468602046FFF791FC286908
:10518000401C2861BDE8704001F060B870BD0000AF
:10519000740000204FF0E020002101618161054989
:1051A0004FF47A720968B1FBF2F1491E416107219F
:1051B000016170471C00002010B5FBF75DF8114934
:1051C00010280ED300F1E02090F8F0030A78904206
:1051D00007D2502080F31188BFF34F8FBFF36F8F3A
:1051E000FEE709480068896800F4E060884207D952
:1051F000502080F31188BFF34F8FBFF36F8FFEE70E
:1052000010BD0000940000200CED00E010B5084B2C
:10521000002200BF53F832401CB1521C082AF9D3B7
:1052200010BD43F8321003EBC201486010BD00000E
:105230007801002010B504000AD000F013F894F8AB
:10524000460000280CD12046BDE81040FFF770BF93
:10525000502080F31188BFF34F8FBFF36F8FFEE7AD
:1052600010BD0000084A002102EBC1035B688342C5
:1052700006D1002042F8310002EBC10148607047BE
:10528000491C0829F0D370477801002070B51546F5
:105290000E460446FFF718FF94F944100020491CFD
:1052A00001D184F8440094F94510491C01D184F8D7
:1052B0004500FFF729FFA06B28B92A46314604F1C3
:1052C000240000F051F82046BDE87040FFF796BD7D
:1052D00010B5020014D00F48006B38B1502080F395
:1052E0001188BFF34F8FBFF36F8FFEE700F0E4F834
:1052F00000211046FFF7EEF900F0A8FF002807D1C3
:1053000005494FF080500860BFF34F8FBFF36F8F98
:1053100010BD00002000002004ED00E002490A6AF0
:105320000260C968416070472000002001490120E7
:10533000C86170472000002010B50C4650B10949E3
:1053400009681831FFF79CFE2046BDE81040012196
:10535000FFF7C0B9502080F31188BFF34F8FBFF320
:105360006F8FFEE72000002070B514460D4668B12F
:105370000A4909681831FFF79BFE0CB14FF0FF3561
:1053800021462846BDE87040FFF7A4B9502080F3BD
:105390001188BFF34F8FBFF36F8FFEE7200000200F
:1053A00070B504003ED0226DA2B1E06C884200D3FB
:1053B0000146E06A884235D0012A33D11A4D2A6865
:1053C00094420FD1502080F31188BFF34F8FBFF369
:1053D0006F8FFEE7502080F31188BFF34F8FBFF32C
:1053E0006F8FFEE7E162A269002A02DBC1F138019A
:1053F000A1610E4E00EB8000616906EB80008142E6
:1054000010D1201DFFF704FEE06A2969884200D907
:10541000286100EB800006EB8000211DBDE8704094
:10542000FFF746BE70BD000020000020B80100203C
:1054300030B587B00024039405AA04A903A80494F6
:10544000FFF7FAFDDDE903010094CDE90110002327
:1054500015A11748059A00F0ECFC164D0028E862EB
:105460001FD000F055FF012809D0401C19D1502051
:1054700080F31188BFF34F8FBFF36F8FFEE750208B
:1054800080F31188BFF34F8FBFF36F8F4FF0FF3062
:10549000A86201206861EC6007B0BDE8304000F010
:1054A00045B807B030BD000049444C45000000003D
:1054B0006D490008200000200248016B491C01636F
:1054C0007047000020000020164810B5016B11B194
:1054D0000121C16110BD0021C1610169124A01E0D1
:1054E000B9B1491E01EB810352F82330002BF7D0EC
:1054F00001EB810302EB830202F1080453685B684D
:105500005360A34201D15B685360DA6802600161B5
:1055100010BD502080F31188BFF34F8FBFF36F8F02
:10552000FEE7000020000020B80100201CB537482D
:105530000168374A914207D1502080F31188BFF3A8
:105540004F8FBFF36F8FFEE700683149491E8842D5
:1055500007D1502080F31188BFF34F8FBFF36F8FB7
:10556000FEE72C4908780190FF20087008788DF834
:1055700000009DF800009DF8002000F0F00090422F
:1055800007D0502080F31188BFF34F8FBFF36F8F88
:10559000FEE79DF80000204C00F05000207007202E
:1055A000A06005E09DF8002052008DF80020401E0C
:1055B0009DF800201206F5D4A060032807D05020E3
:1055C00080F31188BFF34F8FBFF36F8FFEE74FF467
:1055D0004070A060019808700C482030016841F4C8
:1055E00070010160016841F070410160FFF7D2FD78
:1055F00000206060FAF708FE0848016841F0404169
:105600000160FAF7EDFD00201CBD000000ED00E098
:1056100071C20F4100E400E09400002034EF00E08C
:1056200010B5502080F31188BFF34F8FBFF36F8FF9
:1056300000F0AEFC18B104494FF080500860002023
:1056400080F3118810BD000004ED00E010B50C4699
:1056500048B184420FD9502080F31188BFF34F8F97
:10566000BFF36F8FFEE7502080F31188BFF34F8F99
:10567000BFF36F8FFEE70222002100F024F800281C
:1056800000D0846310BD38B50C4648B184420FD9B0
:10569000502080F31188BFF34F8FBFF36F8FFEE769
:1056A000502080F31188BFF34F8FBFF36F8FFEE759
:1056B0000221134600220091114600F025F800282F
:1056C00000D0846338BDF8B517460E46050013D0E8
:1056D00005FB06F05030FFF7C7FB04000AD000209E
:1056E00084F8460004F150023B46314628460094B7
:1056F000FFF76CF92046F8BD502080F31188BFF306
:105700004F8FBFF36F8FFEE738B5049D18B153B1CB
:10571000CAB181B120E0502080F31188BFF34F8FD0
:10572000BFF36F8FFEE7502080F31188BFF34F8FD8
:10573000BFF36F8FFEE7502080F31188BFF34F8FC8
:10574000BFF36F8FFEE739B1502080F31188BFF3AC
:105750004F8FBFF36F8FFEE750241C46012384F860
:1057600046302B460094FFF731F9204638BD000043
:1057700070B50D46040025D0FFF7A6FCD4E90F2034
:10578000216802FB0011A1600021A1632168616012
:105790000A46D4E90F01401E00FB0121E1602146C9
:1057A0004FF0FF3001F8440F487004F110008DB144
:1057B000FFF758FC04F12400FFF754FCFFF7A4FCAA
:1057C000012070BD502080F31188BFF34F8FBFF3CD
:1057D0006F8FFEE721690029F0D000F0FFFC002860
:1057E000ECD004494FF080500860BFF34F8FBFF3F7
:1057F0006F8FE3E704ED00E02DE9FF4782B01D461F
:105800008A464FF00008040003D0BAF1000F08D018
:1058100011E0502080F31188BFF34F8FBFF36F8FDB
:10582000FEE7206C38B1502080F31188BFF34F8F12
:10583000BFF36F8FFEE7022D0AD1E06B012807D07E
:10584000502080F31188BFF34F8FBFF36F8FFEE7B7
:1058500000F08AFB3F4F4FF000094FF0805648B9E7
:10586000049838B1502080F31188BFF34F8FBFF3F5
:105870006F8FFEE7FFF728FCA06BE16B884207D330
:10588000022D05D00498D0B1B8F1000F1AD01EE057
:105890002A4651462046FEF7F2FF616A19B104F12B
:1058A000240000F09BFC20B13E60BFF34F8FBFF39C
:1058B0006F8FFFF729FC012006B0BDE8F087FFF7E6
:1058C00023FC22E06846FFF729FD4FF00108FFF7AF
:1058D0001BFCFFF7F1FDFFF7F7FB94F94400401CB8
:1058E00001D184F8449094F94500401C01D184F81A
:1058F0004590FFF709FC04A9684600F033FA30B17F
:105900002046FFF77BFA00F0A1FC0020D4E7FFF768
:10591000DBFBA06BE16B884213D1FFF7F5FB04F1D1
:1059200010000499FFF708FD2046FFF767FA00F022
:105930008DFC00289ED13E60BFF34F8FBFF36F8F69
:1059400098E7FFF7E1FB2046FFF758FA00F07EFCEE
:1059500090E7000004ED00E02DE9F0471F46904677
:105960008946040003D0B9F1000F08D011E050209F
:1059700080F31188BFF34F8FBFF36F8FFEE7206C6A
:1059800038B1502080F31188BFF34F8FBFF36F8F72
:10599000FEE7022F0AD1E06B012807D0502080F3E8
:1059A0001188BFF34F8FBFF36F8FFEE7FFF704FC43
:1059B0005020EFF3118680F31188BFF34F8FBFF3B0
:1059C0006F8FA06BE16B884206D3022F04D00020BA
:1059D00086F31188BDE8F08794F94550A06B3A46EC
:1059E00049462046FEF74BFF681C04D06D1C84F826
:1059F00045500120ECE7606A0028FAD004F1240049
:105A000000F0ECFB0028F4D0B8F1000FF1D0012138
:105A1000C8F80010EDE770B50E46040009D0206C00
:105A200078B1502080F31188BFF34F8FBFF36F8F91
:105A3000FEE7502080F31188BFF34F8FBFF36F8FC5
:105A4000FEE7206848B9A06838B1502080F311887B
:105A5000BFF34F8FBFF36F8FFEE7FFF7ADFB502013
:105A6000EFF3118580F31188BFF34F8FBFF36F8F72
:105A7000A16BE06B884218D994F94500491CA163D9
:105A8000411C04D0401C84F8450001200EE0606AEF
:105A90000028FAD004F1240000F0A0FB0028F4D084
:105AA000002EF2D001203060EFE7002085F311884E
:105AB00070BD00002DE9F747002683B08A46040038
:105AC00003D0BAF1000F08D011E0502080F3118804
:105AD000BFF34F8FBFF36F8FFEE7206C38B15020BC
